:020000040800F2
:10000000000002200D7100089D6A00089F6A000828
:10001000A16A0008A36A0008A56A000800000000A1
:10002000000000000000000000000000A76A0008B7
:10003000A96A000800000000AB6A0008AD6A000869
:100040005D7100085D7100085D7100085D71000858
:100050005D7100085D7100085D7100085D71000848
:100060005D7100085D7100085D7100085D71000838
:100070005D7100085D7100085D7100085D71000828
:100080005D7100085D7100085D7100085D71000818
:100090005D7100085D7100085D7100085D71000808
:1000A0005D7100085D7100085D7100085D710008F8
:1000B0005D7100085D7100085D7100085D710008E8
:1000C0005D7100085D7100085D7100085D710008D8
:1000D0005D7100085D7100085D7100085D710008C8
:1000E0005D7100085D710008000000005D7100088E
:1000F0005D7100085D7100085D7100085D710008A8
:100100005D7100085D7100085D7100085D71000897
:100110005D7100085D7100085D7100085D71000887
:100120005D7100085D7100085D7100085D71000877
:100130005D7100085D7100085D7100085D71000867
:1001400000000000000000000000000000000000AF
:100150005D7100085D7100085D7100085D71000847
:100160005D7100085D7100085D7100085D71000837
:100170005D7100085D7100085D71000800000000FD
:100180005D7100085D7100085D7100085D71000817
:100190005D7100085D7100085D7100085D71000807
:1001A0005D7100085D7100085D7100085D710008F7
:1001B0005D7100085D7100085D7100085D710008E7
:1001C0005D7100085D7100085D7100085D710008D7
:1001D0005D7100085D7100085D7100085D710008C7
:1001E0005D7100085D7100085D7100085D710008B7
:1001F0005D7100085D7100085D7100085D710008A7
:100200005D7100085D7100085D7100085D71000896
:100210005D7100085D7100085D7100085D71000886
:100220005D7100085D7100085D710008000000004C
:100230005D7100085D710008000000005D7100083C
:100240005D7100085D7100085D7100085D71000856
:100250005D7100085D7100085D7100085D71000846
:100260005D7100085D7100085D7100085D71000836
:100270005D7100085D7100085D71000800000000FC
:100280005D7100085D7100085D71000800000000EC
:08029000000000005D71000890
:1002A00010B5054C237833B9044B13B10448AFF3B0
:1002B00000800123237010BDEC010020000000002D
:1002C0003081000808B5034B1BB103490348AFF365
:1002D000008008BD00000000F0010020308100080F
:1002E000034613F8012B002AFBD1181A0138704776
:1002F00001F0FF01102A2BDB10F0070F08D010F8D7
:10030000013B013A8B422DD010F0070F42B3F6D1DA
:10031000F0B441EA012141EA014122F007047FF0F3
:1003200000070023F0E80256083C85EA010586EA4A
:10033000010685FA47F5A3FA87F586FA47F6A5FA86
:1003400087F68EB9EED1F0BC01F0FF0102F0070292
:1003500032B110F8013B013A83EA010313B1F8D13D
:100360000020704701387047002D06BF354603381E
:10037000073815F0010F07D1013015F4807F02BF57
:10038000013015F4C03F0130F0BC0138704700BFA8
:1003900053B94AB9002908BF00281CBF4FF0FF31EC
:1003A0004FF0FF3000F07AB9ADF1080C6DE904CEE2
:1003B00000F006F8DDF804E0DDE9022304B0704740
:1003C0002DE9F0478C460D460446089E002B51D17E
:1003D0008A4217466DD9B2FA82FEBEF1000F0BD0E9
:1003E000CEF1200C01FA0EF520FA0CFC02FA0EF701
:1003F0004CEA050C00FA0EF44FEA174A250CBCFB38
:10040000FAF81FFA87F90AFB18CC45EA0C4508FBF5
:1004100009F3AB420AD9ED1908F1FF3280F02381CC
:10042000AB4240F22081A8F102083D44ED1AA4B28B
:10043000B5FBFAF00AFB105544EA054400FB09F944
:10044000A14509D9E41900F1FF3380F00A81A145E3
:1004500040F2078102383C44A4EB090440EA08401A
:100460000021002E61D024FA0EF400233460736062
:10047000BDE8F0878B4207D9002E54D0002186E8D2
:1004800021000846BDE8F087B3FA83F1002940F067
:100490008E80AB4202D3824200F2FA80841A65EB6E
:1004A00003050120AC46002E3FD086E81010BDE8C1
:1004B000F08712B90127B7FBF2F7B7FA87FEBEF152
:1004C000000F34D1EB1B3A0C1FFA87FC0121B3FB60
:1004D000F2F8250C02FB183345EA03450CFB08F340
:1004E000AB4207D9ED1908F1FF3002D2AB4200F25E
:1004F000D1808046ED1AA3B2B5FBF2F002FB105595
:1005000043EA05440CFB00FCA44507D9E41900F1BB
:10051000FF3302D2A44500F2B8801846A4EB0C04C5
:1005200040EA08409DE731463046BDE8F087CEF10D
:10053000200405FA0EF307FA0EF720FA04F83A0C35
:1005400025FA04F448EA0308B4FBF2F14FEA18452F
:1005500002FB11441FFA87FC45EA044501FB0CF33A
:10056000AB4200FA0EF409D9ED1901F1FF3080F029
:100570008A80AB4240F2878002393D44EB1A1FFA71
:1005800088F5B3FBF2F002FB103345EA034500FBAC
:100590000CF3AB4207D9ED1900F1FF386FD2AB4233
:1005A0006DD902383D44EB1A40EA01418FE7C1F1B1
:1005B000200722FA07F88B4005FA01F448EA030302
:1005C00020FA07FE4FEA134CFD404EEA040EB5FB3D
:1005D000FCF94FEA1E440CFB19551FFA83F844EA54
:1005E000054509FB08F4AC4202FA01F200FA01FAEF
:1005F00008D9ED1809F1FF3043D2AC4241D9A9F135
:1006000002091D442D1B1FFA8EFEB5FBFCF00CFBEE
:1006100010554EEA054400FB08F8A04507D9E41838
:1006200000F1FF3529D2A04527D902381C4440EA01
:100630000940A4EB0804A0FB02894C45C6464D4680
:1006400015D312D056B1BAEB0E0364EB050404FACD
:1006500007F7CB401F43CC40376074600021BDE8F2
:10066000F0871846F8E69046E0E6C245EAD2B8EBD5
:10067000020E69EB03050138E4E72846D7E7404658
:1006800091E78146BEE7014678E702383C4445E7FA
:10069000084608E7A8F102083D442BE7704700BF71
:1006A00038B50F4B0546187808B9012038BD4FF40E
:1006B0007A730C4AB3FBF0F31068B0FBF3F000F070
:1006C000D3F804460028F0D10F2DEED80246294673
:1006D0004FF0FF3000F080F8034B20461D6038BD1E
:1006E00000000020140000200400002010B50320AA
:1006F00000F054F800F058FF0F49104A8B69C3F31B
:100700000323D35C03F01F03D8400D4B18608B69A3
:1007100003F00F03D35C03F01F03D840094B1860AC
:100720000020FFF7BDFF044618B906F0D9F82046AF
:1007300010BD0124FBE700BF004402583F840008BD
:100740001400002018000020034A044B11681B7895
:100750000B441360704700BF2C02002000000020F3
:10076000014B1868704700BF2C02002038B50446C2
:10077000FFF7F6FF0546631C1EBF044B1B78E41809
:10078000FFF7EEFF401B8442FAD838BD000000207E
:10079000014B1868000C70470010005CC31E042B4E
:1007A00010B5044603D99221094806F091F8094A88
:1007B0002402D36804F4E06423F4E0631B041B0CFC
:1007C00043F0BF6343F400331C43D46010BD00BF4B
:1007D0006881000800ED00E00F2A70B504460E465F
:1007E000154603D9AA211D4806F072F80F2E03D929
:1007F000AB211A4806F06CF8194B0120D968C1F3F7
:100800000221C1F107030A1D042B28BF0423062A75
:1008100000FA03F28CBF03390021002C02F1FF32F1
:1008200000FA01F002EA060200F1FF3002FA01F2DA
:1008300005EA000542EA05024FEA021207DB04F16D
:100840006044D2B204F5614484F8002370BD04F022
:100850000F04D2B2034B1A5570BD00BF6881000867
:1008600000ED00E014ED00E00138B0F1807F0AD225
:10087000064BF021064A5860002082F82310072218
:1008800098601A6070470120704700BF10E000E0D8
:1008900000ED00E0BD4B98422DE9F04F044685B0D5
:1008A0000D462BD003F58063984227D003F5806373
:1008B000984223D003F5806398421FD003F58063EC
:1008C00098421BD003F58063984217D003F58063EC
:1008D000984213D003F5806398420FD003F58063EC
:1008E00098420BD003F58063984207D003F58063EC
:1008F000984203D0BB21A64805F0EAFF2B689AB2C4
:1009000012B11B0C1B041BB1BC21A14805F0E0FF78
:100910006B68032B17D9A3F11102012A13D923F411
:1009200000129C498A420ED001F580118B420AD0F8
:10093000A1F570218A4206D0974A934203D0BD2187
:10094000934805F0C5FFAB68022B03D9BE21904840
:1009500005F0BEFF4FF00008904F914E2B6833FA20
:1009600008F202D105B0BDE8F08F4FF0010A0AFA93
:1009700008FA13EA0A0900F0F7806B6823F0100305
:10098000022B45D1814B9C422BD003F580639C42C6
:1009900027D003F580639C4223D003F580639C42FB
:1009A0001FD003F580639C421BD003F580639C42FB
:1009B00017D003F580639C4213D003F580639C42FB
:1009C0000FD003F580639C420BD003F580639C42FB
:1009D00007D003F580639C4203D0CD216C4805F01D
:1009E00077FF2B690F2B03D9CE21694805F070FFE3
:1009F00008F007034FEAD80299000F2304EB8202A4
:100A00008B40106A20EA03002B698B40034313627A
:100A10004FEA48024FF0030B6B680BFA02FB2068A9
:100A200003F0030123F010036FEA0B0B9140013B2D
:100A300000EA0B00012B41EA000121601AD8EB68A3
:100A4000032B05D9E2215248019205F041FF019A9A
:100A5000A168EB680BEA010193400B43A360636854
:100A600023EA0A0A6B68C3F3001303FA08F343EAA4
:100A70000A036360E36868680BEA030BAB6803FA78
:100A800002F242EA0B02E260C2006DD5D7F8F43000
:100A900028F003014FF00F0C43F0020301F1B041C5
:100AA000C7F8F43001F58061D7F8F43003F00203A1
:100AB0000393039B08F003038A684FEA830E0CFA42
:100AC0000EF322EA030C314B9C4250D003F58063B5
:100AD0009C424ED003F580639C424CD003F580636A
:100AE0009C424AD003F580639C4248D003F5806362
:100AF0009C4246D003F580639C4244D003F580635A
:100B00009C424FD003F580639C424DD003F5806337
:100B10009C4214BF0A23092303FA0EF343EA0C0391
:100B20008B606FEA09013268C30354BF0A4049EA87
:100B3000020283034FF0B0433260726854BF0A4030
:100B400049EA020210F4801F72601A680CBF0A4062
:100B500049EA02021A6082025B684FF0B04254BF59
:100B60000B4049EA0303536008F10108F6E600234D
:100B7000D2E70123D0E70223CEE70323CCE7042307
:100B8000CAE70523C8E70623C6E700BF00000258EE
:100B9000A381000800001111000022110044025836
:100BA000800000580723B7E70823B5E72DE9F84F81
:100BB000674B04460D4698422CD003F5806398425B
:100BC00028D003F58063984224D003F580639842CF
:100BD00020D003F5806398421CD003F580639842CF
:100BE00018D003F58063984214D003F580639842CF
:100BF00010D003F5806398420CD003F580639842CF
:100C000008D003F58063984204D040F23F11514868
:100C100005F05EFEABB213B12B0C1B0423B14FF4F5
:100C2000A0714C4805F054FE00224B4EDFF82C9189
:100C3000DFF82CA1DFF82CB135FA02F301D1BDE8C1
:100C4000F88F012303FA02FC15EA0C016BD022F0A5
:100C5000030002F0030E0F273D4B00F1B0404FEAB6
:100C60008E0E9C4200F5806007FA0EF7D0F80880DF
:100C700008EA070859D003F580639C4257D003F572
:100C800080639C4255D003F580639C4253D003F5AA
:100C900080639C4251D04C4551D0544551D05C4565
:100CA00051D003F580539C424FD003F580639C42A2
:100CB0000CBF09230A2303FA0EF3984512D1836867
:100CC000C94323EA0707876033680B4033607368C2
:100CD0000B4073604FF0B0431868084018605868C4
:100CE0000140596003205300216802F0070E00FA0A
:100CF00003F30F274FEA8E0E1943DB4307FA0EF773
:100D0000216022FA00F104EB8101086A20EA07075A
:100D10000F62A1681940A160616821EA0C0161605D
:100D2000E1680B40E360013286E70023C3E701235B
:100D3000C1E70223BFE70323BDE70423BBE7052385
:100D4000B9E70623B7E70723B5E70823B3E700BFF2
:100D500000000258A38100088000005800140258C7
:100D600000180258001C025838B505460C4621B937
:100D700040F28D11044805F0ABFD2B691C4214BFF5
:100D80000120002038BD00BFA381000870B50546D2
:100D900016460C4621B940F2AD11084805F098FD01
:100DA000012E06D94FF4D771044805F091FDAC61CE
:100DB00070BD002EFBD12404F9E700BFA381000819
:100DC00038B505460C4621B940F2C311044805F078
:100DD0007FFD6B6934EA030308BF2404AC6138BDAE
:100DE000A3810008F0B504468BB0002839D0036811
:100DF000494A934207D0A2F58022934203D087212B
:100E0000464805F065FD94F8BD33256803F0FF0200
:100E100023B984F8BC23204605F0FEFD03236E466B
:100E2000271D84F8BD33EB6B254613F4807355F80A
:100E3000100B08BF236103F04EFE0FCD0FC60FCD80
:100E40000FC695E80300254686E8030097E80E00E4
:100E500055F8100B03F0FEFD064620B1022384F87E
:100E6000BD33012554E00146206803F03AFE3046C8
:100E7000D4F804E01C264FF0010C0146C2B2013048
:100E800096451BD800231C261946D8B20133864547
:100E900022D80FCD6E460FC60FCD0FC695E80300C2
:100EA00086E8030097E80E00206803F05BFE01234C
:100EB000054600B3022284F8BD23D2E706FB0243B5
:100EC00083F83DC083F83C20A3F8422083F83F100C
:100ED000596499641965D1E706FB004282F8FD1157
:100EE00082F8FC0182F8FF11C2F80412C2F808125D
:100EF000C2F81012C9E784F8380084F8BD33636A79
:100F0000012B02D1204600F00BF8206803F0EAFE26
:100F100028460BB0F0BD00BF00000840DC8100088F
:100F2000012102680346C0F8FC13002083F8F40393
:100F3000936943F000639361536D43F0805343F032
:100F4000030353657047000038B5431E0446012B68
:100F500003D9EF21124805F0BBFC124BDA6812F0FE
:100F6000040F1A4604D1DB6803F007039C4215D135
:100F7000D06820F0070020430A4CD060FFF7F0FB58
:100F8000054663689B0401D5002038BDFFF7E8FBE8
:100F9000401BB0F57A7FF4D9032038BD012038BD5D
:100FA0001482000800480258024AD36843F0807354
:100FB000D360704700480258F8B5044608B90120CC
:100FC000F8BD036833B19D0604D14FF4B871AA4847
:100FD00005F07EFC2368D80755D42368990700F1F3
:100FE000AF802368DA0634D5E36933F0800304D098
:100FF0004FF4FD71A04805F06BFC236A1F2B04D948
:1010000040F2FB119C4805F063FC9C4B1A69996AFD
:1010100002F03802082A07D0182A40F0048101F0B3
:101020000302012A40F0FF801B68DB0502D5E3695B
:10103000802BC4D1FFF7ACFB41F203038F4A9842E7
:10104000216A00F2E980536823F0F84343EA8163A0
:1010500053602368190700F1268123689A0600F17E
:101060004F8123685D0700F17881636A022B04D900
:1010700040F2C321804805F02BFC626A002A40F050
:10108000C5810020F8BD636833F4803207D0B3F522
:10109000A02F04D040F27511774805F019FC774B6A
:1010A0001A69996A02F03802102A05D0182A0AD162
:1010B00001F00302022A06D11B689A038DD56368EA
:1010C000002B8AD17BE763686C4DB3F5803F12D16A
:1010D0002B6843F480332B60FFF742FB674D0646D5
:1010E0002B689B033FF579AFFFF73AFB801B642821
:1010F000F6D90320F8BDA3B92B6823F480332B6005
:101100002B6823F480232B60FFF72AFB06462B680D
:101110009F037FF562AFFFF723FB801B6428F6D99E
:10112000E7E7B3F5A02F2B6803D143F480232B60AE
:10113000CEE723F480332B602B6823F48023CAE7A7
:10114000E268192A03D84E4BD340D80704D440F2A2
:10115000A911494805F0BCFB23697F2B04D94FF442
:10116000D571454805F0B4FB444BE2681969986AAB
:1011700011F0380103D018292BD1810729D11B6820
:101180005B0702D5002A3FF41AAF3C4D2B6823F0D1
:10119000190313432B60FFF7E3FA06462B685F073A
:1011A00011D5FFF7F5FA41F20303226998426B6803
:1011B00095BF23F47C3323F0FE4343EA023343EA32
:1011C00002636B600DE7FFF7CBFA801B0228E5D9BD
:1011D0008FE72A4D2B687AB123F0190313432B6054
:1011E000FFF7BEFA06462B685807DAD4FFF7B8FABD
:1011F000801B0228F7D97CE723F001032B60FFF75F
:10120000AFFA06462B6859077FF5EBAEFFF7A8FA51
:10121000801B0228F6D96CE7D36823F07C5343EA9D
:101220000163D36015E7E369144D5BB32B6843F0AA
:1012300080032B60FFF794FA06462B68DF050DD577
:10124000FFF7A6FA41F20303226A98420CD86B68B2
:1012500023F0F84343EA82636B60FAE6FFF780FA13
:10126000801B0228E9D944E7EB6823F07C5343EA6A
:101270000263EB60EDE600BF4F82000800440258B5
:10128000030202022B6823F080032B60FFF768FA49
:1012900006462B68D8057FF5DCAEFFF761FA801BA8
:1012A0000228F6D925E76369012B04D94FF40F71A1
:1012B000B14805F00DFB6369B04D83B16B6F43F02E
:1012C00001036B67FFF74CFA06466B6F9B073FF510
:1012D000C4AEFFF745FA801B0228F6D909E76B6F09
:1012E00023F001036B67FFF73BFA06466B6F9F071E
:1012F0007FF5B3AEFFF734FA801B0228F6D9F8E683
:10130000A369012B04D940F267219B4805F0E0FA5C
:10131000A3699A4D83B12B6843F480532B60FFF788
:101320001FFA06462B6898043FF59BAEFFF718FAA4
:10133000801B0228F6D9DCE62B6823F480532B604F
:10134000FFF70EFA06462B6899047FF58AAEFFF781
:1013500007FA801B0228F6D9CBE6A368012B06D931
:10136000052B04D040F29121834805F0B1FA844D59
:101370002B6843F480732B60FFF7F2F906462B6865
:10138000DA0517D5A3687D4D012B19D12B6F43F0DA
:1013900001032B6741F28835FFF7E2F9774E0746E4
:1013A000336F9B073FF561AEFFF7DAF9C01BA84228
:1013B000F6D99EE6FFF7D4F9801B6428DFD998E6BA
:1013C000B3B92B6F41F2883723F001032B672B6FE2
:1013D00023F004032B67FFF7C3F906462B6F98072A
:1013E0007FF543AEFFF7BCF9801BB842F6D980E623
:1013F000052B2B6F03D143F004032B67C6E723F0C3
:1014000001032B672B6F23F00403C2E75B4D2B69AD
:1014100003F03803182B3FF4D2AD022A40F0B2801B
:10142000A36A032B04D94FF43371534805F050FAE3
:10143000E36A013B3E2B04D940F2CD214E4805F032
:1014400047FA236B043BB3F5FE7F04D940F2CE216B
:10145000494805F03DFA636B013B7F2B04D940F20C
:10146000CF21454805F034FAA36B013B7F2B04D90B
:101470004FF43471404805F02BFAE36B013B7F2BAE
:1014800004D940F2D1213C4805F022FAA36CB3F50F
:10149000005F04D340F2D221374805F019FA374DE6
:1014A0002B6823F080732B60FFF75AF906462B68F0
:1014B00099015BD4AB6AA26A23F47C7323F0030323
:1014C0001343E26A43EA0213AB62636BA26B013B14
:1014D000013A5B0212049BB202F4FE021343226B38
:1014E000013AC2F308021343E26B013A120602F01A
:1014F000FE4213432B63EB6A23F00103EB626B6B39
:10150000A26C23F47F4323F0F80343EAC2036B6326
:10151000EB6A226C23F00C031343EB62EB6A626C00
:1015200023F00203154C1343EB62EB6A43F4803360
:10153000EB62EB6A43F40033EB62EB6A43F4802323
:10154000EB62EB6A43F00103EB622B6843F08073BC
:101550002B60FFF705F9054623689A013FF591AD29
:10156000FFF7FEF8401B0228F6D9C2E5FFF7F8F8AE
:10157000801B02289BD9BCE54F820008004402581A
:10158000004802582B6823F080732B60FFF7E8F8BF
:1015900004462B689B017FF574ADFFF7E1F8001B53
:1015A0000228F6D9A5E500BF484B1A6902F03802B7
:1015B000102A10B50ED0182A0ED0002A40F08380D1
:1015C0001A68434812F0200F7ED01B68C3F3C10392
:1015D000D84010BD3F4810BD996A986ADA6AC0F3D6
:1015E00005105C6B00286FD0C4F3CC0402F001023C
:1015F0009FED395AF7EE005A624307EE902A01F048
:101600000302B8EEE76A012A07EE900AF8EEE76AED
:1016100002D00FD3022A48D01B6BC3F3080307EE96
:10162000903AF8EEE77AE6EE057A9FED2C6A77EECF
:10163000A57A37E01A68920627D51968244AC1F3BB
:10164000C1011B6BCA40C3F3080307EE902AF8EEF2
:10165000E77A87EEA67A07EE903AF8EEE77AE6EEBA
:10166000057A77EEA57A194B67EE877A1B6BC3F381
:101670004623013307EE103AF8EEC76A87EEA67AE2
:10168000FCEEC77A17EE900A10BD1B6BC3F308037C
:1016900007EE903AF8EEE77AE6EE057A9FED106AEB
:1016A00077EEA57A86EE267ADDE71B6BC3F3080397
:1016B00007EE903AF8EEE77AE6EE057A9FED096AD2
:1016C00077EEA57AEEE7084810BD00BF0044025847
:1016D0000090D00300127A00000000390024744A00
:1016E0000024744C0024F44A00093D002DE9F04127
:1016F0000D46044610B90120BDE8F0810368013BA6
:101700003E2B04D940F25231B24805F0E1F80F2DDA
:1017100004D940F25331AF4805F0DAF8AE4A136805
:1017200003F00F039D4200F2E48023685E0700F19E
:10173000EC802368180715D5A84E6369F26902F09A
:10174000700293420ED923F03003402B04D04FF4A3
:101750005E71A04805F0BCF8F369626923F070037C
:101760001343F3612368D90616D59C4EA369F26929
:1017700002F4E06293420FD923F44073B3F5806F13
:1017800004D040F28231934805F0A2F8F369A269CF
:1017900023F4E0631343F36123689A0615D58F4E53
:1017A000E369326A02F0700293420ED923F03003EB
:1017B000402B04D04FF46371864805F089F8336AF2
:1017C000E26923F070031343336223689B0714D547
:1017D000824EE368B26902F00F0293420DD9083BD2
:1017E000072B04D940F297317A4805F071F8B369B4
:1017F000E26823F00F031343B3612368DF0700F1AE
:101800009C8023689E0700F1FE80734A136803F0F2
:101810000F039D42C0F00F812368580700F1178124
:101820002368190718D56D4D6369EA6902F07002E3
:10183000934211D233F0400208D0502B06D0602BD7
:1018400004D040F2FE31634805F042F8EB6962696A
:1018500023F070031343EB612368DA061AD55F4D5A
:10186000A369EA6902F4E062934213D233F480621E
:101870000AD0B3F5A06F07D0B3F5C06F04D04FF412
:101880008161544805F024F8EB69A26923F4E06310
:101890001343EB6123689B0618D5504DE3692A6A10
:1018A00002F07002934211D233F0400208D0502B64
:1018B00006D0602B04D040F21241464805F008F8EB
:1018C0002B6AE26923F0700313432B62FFF76CFE6F
:1018D000424B434A9B69C3F30323D35C03F01F03CA
:1018E000D840404B1860404BBDE8F0411868FEF707
:1018F000D7BE136823F00F032B431360136803F064
:101900000F039D427FF4F7AE0FE7344E2369B269AF
:1019100002F0700293427FF60CAF23F03003402BAD
:1019200004D040F26E312B4804F0D2FFB369226933
:1019300023F070031343B361FBE6A36833F4006242
:1019400016D023F40072B2F5106F11D023F4806228
:10195000B2F5206F0CD023F48072B2F5406F07D03F
:10196000B3F5706F04D040F29F311A4804F0B0FF15
:101970006368032B04D94FF46871164804F0A8FF7C
:10198000164BA1689A6922F470620A439A616168F1
:101990001A6802292AD112F4003F3FF4ACAE1A694A
:1019A00041F288380D4E22F007020A431A61FEF711
:1019B000D7FE07463369626803F03803B3EBC20F02
:1019C0003FF41FAFFEF7CCFEC01B4045F2D9032009
:1019D000BDE8F0814F820008002000520044025808
:1019E0003F8400081400002004000020032902D1D5
:1019F00012F0007FD1E7012902D112F4807FCCE7F9
:101A000012F0040FC9E71F4EE368B26902F00F023B
:101A10009342BFF4FAAE3BB1083B062B04D94FF416
:101A20007771194804F054FFB369E26823F00F039B
:101A30001343B361E9E6136823F00F032B431360EC
:101A4000136803F00F039D427FF455AEE4E60D4D9D
:101A50002369AA6902F070029342BFF4E1AE33F049
:101A6000400208D0502B06D0602B04D04FF47D717B
:101A7000054804F02DFFAB69226923F0700313437E
:101A8000AB61CDE6004402584F82000808B501F072
:101A90003FF8064B064A9B6903F00F03D35C03F043
:101AA0001F03D840034B186008BD00BF0044025814
:101AB0003F8400081800002008B5FFF7E7FF054B3A
:101AC000054ADB69C3F30213D35C03F01F03D8405C
:101AD00008BD00BF004402583F84000808B5FFF766
:101AE000D5FF054B054ADB69C3F30223D35C03F042
:101AF0001F03D84008BD00BF004402583F840008BF
:101B0000F8B5036805460E46013B3E2B04D940F666
:101B100086215A4804F0DCFE6B68043BB3F5FE7F77
:101B200004D940F68721554804F0D2FEAB68013B4A
:101B30007F2B04D940F68821504804F0C9FE2B6958
:101B4000013B7F2B04D940F689214C4804F0C0FEAC
:101B5000EB68013B7F2B04D940F68A21474804F00B
:101B6000B7FE6B6933F0C00304D040F68B214348C5
:101B700004F0AEFEAB6933F0200304D040F68C21B4
:101B80003E4804F0A5FEEB69B3F5005F04D340F6D0
:101B90008D213A4804F09CFE394CA36A03F00303FC
:101BA000032B69D0236823F080632360FEF7D8FD00
:101BB000074623681A014BD4A36A2A6823F47C33AE
:101BC00043EA0233A362AB68EA68013B013A5B0275
:101BD00012049BB202F4FE0213436A68013AC2F394
:101BE000080213432A69013A120602F0FE42134327
:101BF000A363E36A6A6923F0C0031343E362E36A01
:101C0000AA6923F020031343E362E36A23F010037D
:101C1000E362E36BEA6923F47F4323F0F80343EACA
:101C2000C203E363E36A43F01003E362E36AB6B915
:101C300043F40023E362124C236843F08063236083
:101C4000FEF78EFD054623681B010FD50020F8BD69
:101C5000FEF786FDC01B0228ABD90320F8BD012E7C
:101C60000CBF43F4801343F40013E3E7FEF778FD61
:101C7000401B0228E7D9F0E70120F8BD8782000861
:101C800000440258F8B5036805460E46013B3E2B5A
:101C900004D940F6EE215A4804F01AFE6B68043B62
:101CA000B3F5FE7F04D940F6EF21554804F010FE4D
:101CB000AB68013B7F2B04D94FF42F61504804F0EF
:101CC00007FE2B69013B7F2B04D940F6F1214C48DC
:101CD00004F0FEFDEB68013B7F2B04D940F6F221B6
:101CE000474804F0F5FD6B6933F4406304D040F6D7
:101CF000F321434804F0ECFDAB6933F4007304D0E6
:101D000040F6F4213E4804F0E3FDEB69B3F5005FD3
:101D100004D340F6F5213A4804F0DAFD394CA36AC1
:101D200003F00303032B69D0236823F0805323605F
:101D3000FEF716FD074623689A004BD4A36A2A686B
:101D400023F07C7343EA0253A362AB68EA68013B69
:101D5000013A5B0212049BB202F4FE0213436A686A
:101D6000013AC2F3080213432A69013A120602F04B
:101D7000FE4213432364E36A6A6923F44063134316
:101D8000E362E36AAA6923F400731343E362E36A3C
:101D900023F48073E362636CEA6923F47F4323F0E6
:101DA000F80343EAC2036364E36A43F48073E362C3
:101DB000E36AB6B943F48003E362124C236843F04C
:101DC00080532360FEF7CCFC054623689B000FD5AB
:101DD0000020F8BDFEF7C4FCC01B0228ABD90320CD
:101DE000F8BD012E0CBF43F4000343F08073E3E71A
:101DF000FEF7B6FC401B0228E7D9F0E70120F8BD4A
:101E000087820008004402582DE9F843066804461A
:101E100016F0006623D0436EB3F5801F18D002D8A9
:101E200083B101261BE0B3F5001F23D0B3F5401F9B
:101E3000F7D19F4A0026616E136D23F440130B43C4
:101E400013650CE09A4AD36A43F40033D362F0E797
:101E500002210430FFF754FE06460028E9D023682B
:101E6000DD0534D5636D042B30D8DFE803F0080FAF
:101E7000290D0D0002212430FFF704FFECE78C4A06
:101E8000D36A43F40033D362354604E00021201DB9
:101E9000FFF736FE0546E5B9854A616D136D23F0FF
:101EA00007030B4313652368980521D5A36D802B89
:101EB0003BD010D86BB3402B31D00126354617E00C
:101EC000002104F12400FFF7DDFEE3E7012635469B
:101ED000E9E72E46E7E7C02B02D0B3F5807FECD1CF
:101EE0004DBB734AA16D136D23F4E0730B4313656F
:101EF0002368590530D5D4F8A430B3F5800F47D006
:101F00001BD8002B38D0B3F5001F3BD00126354637
:101F100022E0674AD36A43F40033D362E0E700214A
:101F2000201DFFF7EDFD0546DAE7002104F124004E
:101F3000FFF7A8FEF7E72E46DAE7B3F5C00F02D0A9
:101F4000B3F5000FE2D14DBB594AD4F8A410936DFC
:101F500023F460030B43936523681A052FD5D4F847
:101F6000A830B3F1007F41D01AD89BB3B3F1807F82
:101F700036D00126354622E04D4AD36A43F4003379
:101F8000D362E0E70021201DFFF7BAFD0546DAE73E
:101F9000002104F12400FFF775FEF7E72E46DBE78A
:101FA000B3F1407F02D0B3F1806FE2D125BB404A4C
:101FB000D4F8A810936D23F0E0630B439365236876
:101FC0009B0127D5A36C102B33D017D8D3B1012692
:101FD00035461FE0364AD36A43F40033D362E5E75F
:101FE0000021201DFFF78CFD0546DFE7002104F1ED
:101FF0002400FFF747FEF7E72E46E0E7202B1ED030
:10200000302BE4D10DBB2A4AA16CD36C23F03003F2
:102010000B43D3642368DF0427D5E36DB3F5005F7A
:102020003ED014D883B3B3F5805F33D00126354654
:102030001BE01F4AD36A43F40033D362E2E7022174
:10204000201DFFF75DFD0546DCE72E46E2E7B3F510
:10205000405F02D0B3F5804FE8D13DBB144AE16D3B
:10206000136D23F4E0430B4313652368980432D5C2
:10207000236EB3F5003F44D01CD823B3B3F5803FA3
:1020800039D00126354626E0094AD36A43F40033A5
:10209000D362E2E70021201DFFF732FD0546DCE7B1
:1020A000002104F12400FFF7EDFDF7E72E46DCE701
:1020B00000440258B3F5802F05D0B3F5A02F02D00D
:1020C000B3F5403FDDD115BBA54A216E136D23F456
:1020D000E0230B431365236859042DD5D4F8AC30A5
:1020E000B3F1005F4CD014D8E3B1B3F1805F41D0BD
:1020F0000126354620E00121201DFFF701FD0546A0
:10210000E1E7012104F12400FFF7BCFDF7E72E46CB
:10211000E1E7B3F1804F05D0B3F1A04F02D0B3F1A6
:10212000405FE5D1002D31D18D4AD4F8AC10936DCC
:1021300023F0E0430B43936523681A040FD5E36E45
:10214000B3F1805F24D0B3F1005F27D063BB75BBD0
:10215000834AE16E136D23F040530B4313652368EC
:10216000DB0135D5636C032B00F2D280DFE803F08E
:102170002621CA260121201DFFF7C2FC0546D1E712
:10218000012104F12400FFF77DFDF7E72E46D3E798
:10219000734AD36A43F40033D362D8E70121201D88
:1021A000FFF7AEFC0546D2E701263546D7E72E46B7
:1021B000D5E76B4AD36A43F40033D362002D40F075
:1021C000AA80674A616CD36C23F003030B43D3648A
:1021D00023685F0240F1A980D4F8B020B2F5807F77
:1021E0004CD0B2F5007F49D022F4A04322F48051B4
:1021F000B3F50C5F42D022F41043B3F5864F3DD0C7
:1022000022F44053B3F5034F38D022F48830B0F5B0
:10221000634F33D05348834230D000F5804083422F
:102220002CD000F58040834228D022F4043200F5FF
:102230008040824222D04C4A93421FD002F5804215
:1022400093421BD002F58042934217D002F58042A0
:10225000934213D002F5804293420FD002F58042A0
:1022600093420BD002F58042934207D03F4B9942F4
:1022700004D04FF42F713E4804F02AFB3D4F3B68D9
:1022800043F480733B60FEF76BFA80463B68D805E9
:1022900043D5002D61D1324BD4F8B0001A6F4240C3
:1022A00012F4407F0BD01A6F196F22F4407241F480
:1022B00080311967196F21F4803119671A67B0F5F9
:1022C000807F08D1FEF74CFA254F804641F28839CD
:1022D0003B6F990736D5D4F8B030214903F44072EA
:1022E000B2F5407F35D10869234A20F47C5002EAD8
:1022F000131202430A61C3F30B03194A116F0B4314
:10230000136712E00221201DFFF7FAFB054655E78F
:10231000012635465CE72E465AE7FEF721FAA0EB88
:1023200008006428B2D9032635462368DA0733D576
:10233000A36F102B41D021D833B3082B37D00126FF
:10234000354629E0FEF70CFAA0EB08004845BFD956
:10235000E9E70A6922F47C52CCE72E46E5E700BFA4
:1023600000440258000301000003020000E30300E0
:102370008782000800480258CFFFFF00202B03D0BF
:10238000282B01D0182BDAD1EDB9674AA16F536D14
:1023900023F038030B43536523689B0722D5636FF3
:1023A000052B31D8DFE803F016112A161616012185
:1023B000201DFFF7A5FB0546E6E7012104F12400F7
:1023C000FFF760FCF7E72E46E6E70121201DFFF747
:1023D00097FB0546DDB9544A616F536D23F007033F
:1023E0000B43536523685F0721D5D4F89030052B44
:1023F00033D8DFE803F0130E2C131313012104F17B
:102400002400FFF73FFCE4E701263546EAE72E46C5
:10241000E8E70121201DFFF773FB054605BB424A93
:10242000D4F89010936D23F007030B439365236852
:10243000980629D5D4F88C30B3F1005F3AD011D882
:10244000CBB1B3F1805F2FD0012635461CE00121CE
:1024500004F12400FFF716FCDFE701263546E6E726
:102460002E46E4E7B3F1804F05D0B3F1A04F02D080
:10247000B3F1405FE8D11DBB2B4AD4F88C10536DEB
:1024800023F0E0430B435365236859062CD5D4F859
:102490009830B3F5006F3FD014D8E3B1B3F5806F37
:1024A00034D0012635461FE00021201DFFF728FB10
:1024B0000546E0E7022104F12400FFF7E3FBF7E71C
:1024C0002E46E1E7B3F5805F05D0B3F5A05F02D0FB
:1024D000B3F5406FE5D12DBB134AD4F89810936D36
:1024E00023F4E0530B43936523681A0632D5D4F8DE
:1024F0009C30B3F5804F00F0BB8017D8FBB1B3F52B
:10250000005F00F0AF800126354623E00021201D4A
:10251000FFF7F6FA0546DEE7022104F12400FFF793
:10252000B1FBF7E72E46DFE700440258B3F5004F52
:1025300005D0B3F5204F02D0B3F5C04FE3D1002D45
:1025400040F09C80B34AD4F89C10936D23F4604310
:102550000B43936523681B0717D5D4F8803033F4F9
:10256000405304D040F23A41AB4804F0B1F9D4F8FA
:102570008010B1F5805F40F08380022104F12400D7
:10258000FFF780FB002818BF01262368DF061CD553
:10259000D4F89430B3F5007F0AD033F4807207D0BA
:1025A000B3F5405F04D040F24F419B4804F090F9EE
:1025B000D4F89410B1F5807F69D1022104F1240090
:1025C000FFF760FB002818BF01262368180317D502
:1025D000D4F8A010B1F5803F60D0B1F5003F05D030
:1025E000002961D1201DFFF78BFA0546002D5ED131
:1025F000884AD4F8A010936D23F440330B439365BD
:102600002368590319D5D4F88430B3F5001F50D08E
:10261000B3F5401F07D0B3F5801F51D17D4AD36A6F
:1026200043F40033D362002D4DD17A4AD4F884109C
:10263000536D23F440130B4353652368DA0353D5DA
:10264000E36C33F4803304D040F2B741724804F0B5
:102650003FF9E36CCBB3B3F5803F00F0D2800126A5
:10266000354641E00021201DFFF74AFA054666E79E
:10267000022104F12400FFF705FBF7E72E4669E786
:10268000644A536D23F440530B4353657DE7614A1D
:10269000936D23F440730B43936596E7022104F195
:1026A0002400FFF7EFFAA0E701263546A8E72E46FB
:1026B000A6E7012104F12400FFF7E4FA0546B2E79A
:1026C00001263546B9E72E46B7E7524AD36A43F4A6
:1026D0000033D362002D40F09A804E4AE16CD36CF7
:1026E00023F480330B43D36423689B0007D5022176
:1026F00004F12400FFF7C6FA002818BF012621685C
:102700008F0312D5E26FB2F5807F00F0918000F266
:102710008580002A40F08A80002D40F08F803D485F
:10272000436D23F4407313434365C8020FD5236FF1
:1027300033F0004304D040F21651374804F0C8F893
:10274000344A216F136D23F000430B431365236854
:10275000D90011D5D4F8B43033F4804304D04FF409
:10276000A4612D4804F0B4F82A4AD4F8B4101369CF
:1027700023F480430B43136123689A020FD5A36EA1
:1027800033F0807304D040F22A51234804F0A0F8BB
:10279000204AA16E136D23F080730B4313652368E9
:1027A0005B0013D5D4F8B83033F4004304D040F2C2
:1027B0003451194804F08CF8164B1A6922F400427F
:1027C0001A611A69D4F8B8100A431A612368002BF9
:1027D00012DA236D33F0805207D0B3F1005F04D0DA
:1027E00040F23E510C4804F073F80A4A216DD36C54
:1027F00023F040530B43D364301C18BF0120BDE8C5
:10280000F8830221201DFFF77BF9054662E72E467B
:102810006AE700BF0044025887820008B2F5007FD3
:102820003FF47AAFB2F5407F3FF476AF01267CE704
:102830000348C36A43F40033C3626DE72E4674E76E
:102840000044025808B5FFF721F9054B054A1B6AF9
:10285000C3F30213D35C03F01F03D84008BD00BFCD
:10286000004402583F8400084E4930B58C6A8B6A98
:10287000CA6AC3F30533CD6B002B00F08E80C5F31D
:10288000CC0502F010029FED485AF7EE005A6A4359
:1028900007EE902A04F00302B8EEE76A012A07EE79
:1028A000903AF8EEE76A02D00FD3022A67D08B6B1A
:1028B000C3F3080307EE903AF8EEE77AE6EE057AFE
:1028C0009FED3A6A77EEA57A56E00B689B0646D5EF
:1028D0000A688B6BC2F3C101354AC3F30803CA40CF
:1028E00007EE902AF8EEE77A87EEA67A07EE903A9E
:1028F000F8EEE77AE6EE057A77EEA57A294A67EEF2
:10290000877A936BC3F3462307EE103AB8EEC77A83
:1029100037EE257AC7EE876AFCEEE66AC0ED006AFC
:10292000936BC3F3064307EE103AB8EEC77A37EE5F
:10293000257AC7EE876AFCEEE66AC0ED016A936B02
:10294000C3F3066307EE103AB8EEC77A77EE255A5E
:1029500087EEA57ABCEEC77A80ED027A30BD8B6B2C
:10296000C3F3080307EE903AF8EEE77AE6EE057A4D
:102970009FED106A77EEA57A86EE267ABEE78B6B1E
:10298000C3F3080307EE903AF8EEE77AE6EE057A2D
:102990009FED096A77EEA57AEEE7036043608360F6
:1029A00030BD00BF00440258000000390024744AC2
:1029B0000090D0030024744C0024F44A4E4930B5F2
:1029C0008C6A8B6ACA6AC3F305534D6C002B00F006
:1029D0008E80C5F3CC0502F480729FED485AF7EE65
:1029E000005A6A4307EE902A04F00302B8EEE76A41
:1029F000012A07EE903AF8EEE76A02D00FD3022AD6
:102A000067D00B6CC3F3080307EE903AF8EEE77A51
:102A1000E6EE057A9FED3A6A77EEA57A56E00B6806
:102A20009B0646D50A680B6CC2F3C101354AC3F355
:102A30000803CA4007EE902AF8EEE77A87EEA67AF6
:102A400007EE903AF8EEE77AE6EE057A77EEA57AA9
:102A5000294A67EE877A136CC3F3462307EE103AD0
:102A6000B8EEC77A37EE257AC7EE876AFCEEE66ADB
:102A7000C0ED006A136CC3F3064307EE103AB8EEDC
:102A8000C77A37EE257AC7EE876AFCEEE66AC0EDB4
:102A9000016A136CC3F3066307EE103AB8EEC77A07
:102AA00077EE255A87EEA57ABCEEC77A80ED027ADA
:102AB00030BD0B6CC3F3080307EE903AF8EEE77AEB
:102AC000E6EE057A9FED106A77EEA57A86EE267A15
:102AD000BEE70B6CC3F3080307EE903AF8EEE77A13
:102AE000E6EE057A9FED096A77EEA57AEEE70360D8
:102AF0004360836030BD00BF0044025800000039CD
:102B00000024744A0090D0030024744C0024F44A3A
:102B100008B5FEF749FD064B064A9B69C3F303233C
:102B2000D35C03F01F03D840034B186008BD00BFFF
:102B3000004402583F8400081400002003685969CB
:102B40009A6942F008029A619A6942F010029A6109
:102B50001A6822F001021A601A6922F45B7222F0EC
:102B600003021A619A6822F440429A6090F8812028
:102B7000042A0BD08A0609D5D0F8842042F08002BE
:102B8000C0F884209A6942F020029A6190F881206E
:102B9000032A0BD04A0609D5D0F8842042F004025B
:102BA000C0F884209A6942F040029A618A0509D5EA
:102BB000D0F8842042F00102C0F884209A6942F4DF
:102BC00000729A61CA0509D5D0F8842042F0080243
:102BD000C0F884209A6942F480729A610023A0F8B8
:102BE0006230A0F86A30704770B5044608B9012019
:102BF00070BD0368834A934216D0A2F5784293428F
:102C000012D002F5806293420ED002F578429342D0
:102C10000AD002F5E052934206D07B4A934203D099
:102C2000F6217A4803F054FE636833F4800303D03E
:102C3000F721764803F04CFEA36833F4C02303D099
:102C4000F821724803F044FEE368033B1C2B03D9D0
:102C5000F9216E4803F03CFEE36B33F060030BD0C8
:102C6000802B09D0B3F5807F06D0B3F5C07F03D0A9
:102C7000FA21664803F02CFEA36933F0806206D087
:102C8000B3F1005F03D0FB21604803F021FE636BCA
:102C900033F0804303D0FC215C4803F019FEE36964
:102CA00033F0405306D0B3F1804F03D0FD21574895
:102CB00003F00EFE236A33F4000303D0FE215348D1
:102CC00003F006FE636A33F4002303D0FF214F486C
:102CD00003F0FEFD636A8BB9236933F0007304D0FF
:102CE0004FF48171494803F0F3FD636933F0807359
:102CF00004D040F20311454803F0EAFD00232268A6
:102D0000A362404B9A42E36809D041498A4206D007
:102D100001F580618A4202D00F2B3FF668AFE16B6C
:102D200008334909DB0801FB033336498A4267D07F
:102D3000A1F578418A4263D001F580618A425FD073
:102D4000082B3FF654AF94F8813003F0FF0223B90B
:102D500084F88020204603F0D5FD022322686168B4
:102D600084F881301368A56B23F001031360A36915
:102D7000B3F1806F07D1B1F5800F04D11DB9106890
:102D800040F480501060A66AE0693043E66B30433F
:102D9000E66830439060606B0343606A03432069D8
:102DA0002B43034360690343206A0343E06C0B43F6
:102DB0000343A0680343A06C0343A06D0343D360A7
:102DC00059B9936823F4C05343F400639360936844
:102DD00023F4C06343F480639360136D23F0010315
:102DE00013654B0205D5D368616D23F000430B4397
:102DF000D36000200123C4F8840084F8813070BDC2
:102E0000102B9EE70030014000140058C2820008D9
:102E10000038004010B5044670B30368174A934267
:102E200017D0A2F57842934213D002F58062934204
:102E30000FD002F5784293420BD002F5E052934254
:102E400007D00F4A934204D040F2C7110D4803F057
:102E50003FFD22680223204684F88130136823F066
:102E60000103136003F088FD0020C4F8840084F897
:102E7000800084F8810010BD012010BD00300140A9
:102E800000140058C28200082DE9F8431D468368EB
:102E900004460E469146089F23B140F2C141AD4819
:102EA00003F016FD94F88030012B15D0012384F82F
:102EB0008030FDF755FC94F8813080466168DBB2C4
:102EC000012B0CD0B1F5800F03D1A2680AB9042BF5
:102ED00005D0002384F880300220BDE8F8831EB1BD
:102EE000B9F1000F00D02DB90023012084F8803003
:102EF000BDE8F88394F88130042B02D0052384F8D0
:102F0000813000232268C4F86490B1F5800FC4F8C2
:102F100084302367A4F86A506367A4F8625053684A
:102F2000A4F868504FEA1343E665A4F860504FEAEE
:102F3000034343EA05035360136843F0010313603E
:102F400003D1136843F400731360E3680F2B47D970
:102F5000294648F2080053699E070ED56DB1E36D0E
:102F600053F8045B1562E365B4F86230013B9BB231
:102F7000A4F86230B4F86250ADB25369034210D085
:102F8000002900F01081116B636E43F8041B636627
:102F9000B4F86A30013B9BB2A4F86A30B4F86A1006
:102FA00089B2002DD7D10029D5D1FDF7D9FBA0EBEF
:102FB0000800874200F29380781C00F09080204641
:102FC000FFF7BCFD0023012084F88030D4F8843062
:102FD00043F48073C4F8843084F88100BDE8F8833A
:102FE000072B2E463FD822685369980715D5A5B1FF
:102FF000032DE36D40F29780E16B402940F295800C
:1030000053F8041B1162E365B4F86230043B9BB2D1
:10301000A4F86230B4F86250ADB22268536913F478
:10302000604F13D096B1536913F4004F636E00F0F4
:103030009380126B43F8042B6366B4F86A30043B48
:103040009BB2A4F86A30B4F86A60B6B2FDF788FBA8
:10305000A0EB0800874201D8791CB0D1002DC2D165
:10306000002EC0D13BE022685369990713D595B172
:10307000012DE36D47D9E16B002944D053F8041BBF
:103080001162E365B4F86230023B9BB2A4F862308F
:10309000B4F86250ADB2536913F4604F12D08EB1E0
:1030A000536913F4004F636E35D0126B43F8042B51
:1030B0006366B4F86A30023B9BB2A4F86A30B4F895
:1030C0006A60B6B2FDF74CFBA0EB0800874202D85D
:1030D0007B1C7FF474AF002DC5D1002EC3D12368B3
:1030E0005B691B0750D52046FFF728FD002384F8B5
:1030F0008030012384F88130D4F88400003018BF78
:103100000120BDE8F88333F8021B1184E365B4F8AD
:103110006230013BB9E7128E23F8022B6366B4F8E4
:103120006A30013BC8E7012D09D0E16B39B133F8B2
:10313000021B1184E365B4F86230023B67E71B7839
:1031400082F82030E36D0133E365B4F86230013B6F
:103150005DE700BFC2820008516901F4C041B1F5CA
:10316000005F07D9128E23F8022B6366B4F86A3029
:10317000023B65E792F830201A70636E0133636694
:10318000B4F86A30013B5BE7FDF7EAFAA0EB080010
:103190008742A4D87A1CA2D0D4F8843043F020030C
:1031A000C4F884309FE7002D7FF4D5AEFDE600BF64
:1031B00090F881007047D0F88020D0F88400104348
:1031C00070470000000000004268A34B9A422DE9BE
:1031D000F043054687B004D940F634319F4803F0E8
:1031E00077FBAB68B3F1805F07D033F4805304D032
:1031F00040F63531994803F06BFB994B2A689A42A7
:10320000EB6840F0818033F4005304D040F638314D
:10321000924803F05DFB2B6933F4806207D0B3F56D
:10322000C06F04D04FF434618C4803F051FB6B69DC
:1032300033F00C0200D123B940F64131874803F046
:1032400047FBAB6933F4407304D040F64231834806
:1032500003F03EFBEB6933F4004304D040F6433106
:103260007E4803F035FB6B6A0B2B04D940F64431E2
:103270007A4803F02DFBAB682969EA6919436B6949
:10328000686E19432B6811431C6801437548204040
:103290000143E8681960596821F440510143A86965
:1032A00059606F498B421CBF296A0843996821F015
:1032B0006E4121F430610143686A9960D96A21F056
:1032C0000F010143D96268498B422DD1674B5B6D79
:1032D00003F03803282B00F279876549CC5CB2F5FE
:1032E000004F40F07A87082C00F0F38400F2078446
:1032F000012C00F07F84C0F04184042C00F0C484D1
:103300000122002300F09DBC33F4405304D040F66A
:103310003C31524803F0DCFA2B6A33F400633FF48B
:103320007AAF40F63D3173E752498B4208D14F4B9B
:103330005B6D03F00703052B00F245874E49CDE78F
:103340004E498B4208D1494B5B6D03F00703052BB7
:1033500000F239874A49C1E74A498B4208D1434BB9
:103360005B6D03F00703052B00F22D874649B5E797
:1033700046498B4208D13D4B5B6D03F00703052B9B
:1033800000F221874249A9E742498B4208D1374BD5
:103390005B6D03F03803282B00F215873E499DE74B
:1033A0003E498B4208D1314B5B6D03F00703052B7F
:1033B00000F209873A4991E73A498B4208D12B4BF1
:1033C0005B6D03F00703052B00F2FD86364985E7A8
:1033D00023498B4240F0F786244B9B6D03F0070393
:1033E000052B01D90122D6E0304AD45C082C00F02C
:1033F000F8805DD8022C00F0AD80042CF2D1684634
:10340000FFF732FA019A6B6A002B00F0EF80012B74
:1034100000F0EE80022B00F0ED80032B00F0EC803A
:10342000042B00F0DA80052B00F0E880062B00F07A
:10343000E780072B00F0E680082B00F0E580092BE1
:1034400000F0E4800A2B00F0E3800B2B14BF012373
:103450004FF48073C2E000BF20BCBE002F83000881
:10346000000C0058F369FFCF0010014000440258DF
:10347000FA8200080044004023830008004800400E
:1034800023830008004C00402383000800500040C4
:103490002383000800140140FA82000800780040ED
:1034A00023830008007C0040238300082983000850
:1034B000202C00F0E180402C00F0F880102C91D1FD
:1034C000AC4B1A68920640F1BB801A68AA4BC2F353
:1034D000C102D340002800F09D80012800F09C80AC
:1034E000022800F09B80032800F09A80042800F056
:1034F0009980052800F09880062800F0978007281A
:1035000000F09680082800F09580092800F094804B
:103510000A2800F093800B2814BF01204FF480701C
:10352000B3FBF0F26E6806EB460393423FF65AAFE8
:10353000B2EB063F3FF656AF082C00F0CA8100F20E
:103540003B81022C00F08581042C00F0BD8101221A
:103550000020B0E1FFF776F96B6A43B3012B28D066
:10356000022B28D0032B28D0042B28D0052B28D0C1
:10357000062B28D0072B28D0082B28D0092B28D0A1
:103580000A2B28D00B2B14BF01234FF48073B0FB00
:10359000F3F2002AC6D101231046A5F86A30A5F837
:1035A00068300023EB662B6707B0BDE8F08301238A
:1035B000EDE72346EBE70423E9E70623E7E70823E3
:1035C000E5E70A23E3E70C23E1E71023DFE7202305
:1035D000DDE74023DBE78023D9E70823B2FBF3F2E2
:1035E000D7E703A8FFF7EAF9049A0CE70123F5E708
:1035F0000223F3E70423F1E70623EFE70A23EDE7CD
:103600000C23EBE71023E9E72023E7E74023E5E776
:103610008023E3E7012083E7022081E704207FE79E
:1036200006207DE708207BE70A2079E70C2077E772
:10363000102075E7202073E7402071E780206FE7B6
:1036400000284FD001284FD002284FD003284FD058
:1036500004284FD005284FD006284FD007284FD038
:1036600008284FD009284FD00A2851D0434A424B4E
:103670000B2818BF1A4655E7002841D0012841D031
:10368000022841D0032841D0042841D0052841D048
:10369000062841D0072841D0082841D0092841D028
:1036A0000A2842D043F60952354BE1E700283FD0C3
:1036B000012840D0022841D0032842D0042843D01A
:1036C000052844D0062845D0072846D0082847D0EA
:1036D000092848D00A2849D00B2814BF4FF40042CB
:1036E00080221FE7244A1DE7264A1BE7264A19E7DE
:1036F000264A17E7264A15E7264A13E7264A11E71E
:103700001F4A0FE7254A0DE7254A0BE7254A09E737
:10371000254A07E7254A05E7254A03E7174A01E74F
:10372000244AFFE64FF22442FCE647F61222F9E66D
:103730004FF40042F6E64FF48042F3E64FF40052B5
:10374000F0E641F25552EDE64FF48052EAE640F6DB
:10375000CC42E7E640F6AA22E4E64FF40062E1E656
:103760004FF48062DEE64FF40072DBE64FF48072C5
:10377000D8E600BF004402580090D00390D0030068
:1037800000093D000048E8010024F400AAC2A2009C
:1037900000127A0000A861005561510080841E006B
:1037A00040420F002A2C0A0020A10700801A0600C0
:1037B0001516050048E80100202C00F0F880402C88
:1037C00000F02B81102C7FF4C2AEB14A740813684C
:1037D00013F0200F6B6A00F0AD801268AD48C2F3A1
:1037E000C102D040002B00F0A380012B00F08C80A0
:1037F000022B00F08B80032B00F08A80042B00F05A
:103800008980052B00F08880062B00F08780072B2D
:1038100000F08680082B00F08580092B00F0848062
:103820000A2B00F083800B2B40F082804FF48072D3
:1038300000230021FCF7ACFD32464FEA01290023AA
:103840004FEA002849EA106918EB040049F1000129
:103850002EE0FEF7F7FF6B6A002B53D0012B3DD013
:10386000022B3DD0032B3DD0042B3DD0052B3DD06A
:10387000062B3DD0072B3DD0082B3DD0092B3DD04A
:103880000A2B3DD00B2B3DD14FF480720023002139
:10389000FCF77EFD6C680F0200230602224647EA11
:1038A0001067600816EB000847F1000940464946DA
:1038B000FCF76EFD0022A0F54071774B99423FF670
:1038C00091AD2B68D86066E66846FEF7CDFF01989B
:1038D000C1E703A8FFF772F80498BCE70222D5E716
:1038E0000422D3E70622D1E70822CFE70A22CDE758
:1038F0000C22CBE71022C9E72022C7E74022C5E708
:103900008022C3E70122C1E7022291E704228FE768
:1039100006228DE708228BE70A2289E70C2287E737
:10392000102285E7202283E7402281E780227FE77B
:1039300001227DE7002B37D0012B16D0022B1DD0A2
:10394000032B1DD0042B1FD0052B1FD0062B1FD0FF
:10395000072B21D0082B21D0092B21D00A2B21D0D5
:103960000B2B21D14B48002101E04C4801210019CB
:1039700032464FF0000341F1000199E74848F2E771
:103980003BA1D1E90001F2E74648ECE74648EAE707
:1039900039A1D1E90001EAE74448E4E74448E2E715
:1039A0004448E0E74448DEE744480321DFE76B6A28
:1039B0008BB3012B16D0022B16D0032B16D0042B61
:1039C00019D0052B19D0062B19D0072B1BD0082B8B
:1039D0001BD0092B1BD00A2B1BD00B2B1BD138481B
:1039E000002106E03248FBE73248F9E724A1D1E99B
:1039F00000017408BBE73048F2E73248F0E722A143
:103A0000D1E90001F5E72348EAE72F48E8E72F4826
:103A1000E6E72F48E4E72548E2E76B6A002B6BD026
:103A2000012B16D0022B17D0032B18D0042B18D043
:103A3000052B19D0062B51D0072B51D0082B52D073
:103A4000092B53D00A2B54D00B2B55D14FF40040E7
:103A5000C6E74FF48000C3E74FF40010C0E71D48ED
:103A6000BEE74FF48010BBE71B48B9E7AFF3008017
:103A700000AAC2A200000000005561510000000031
:103A8000002A2C0A000000000015160500000000A6
:103A9000004402580090D003FFFC0F00000048E8EB
:103AA000000024F40000127A0000A8610000093D23
:103AB0000080841E0040420F0020A107000090D02B
:103AC00000093D0000801A060048E8010024F400C7
:103AD00000127A000055150000CC0C00AD487FE7BD
:103AE0004FF400207CE74FF4802079E74FF400305A
:103AF00076E74FF4803073E74FF4000070E7202C36
:103B000000F06481402C00F09A81102C7FF4F8AB17
:103B1000A14B69681A6812F0200F00F013811B682E
:103B20009E4AC3F3C10322FA03F3002800F0F48095
:103B3000012800F0F380022800F0F280032800F052
:103B4000F180042800F0F080052800F0EF800628BE
:103B500000F0EE80072800F0ED80082800F0EC80EF
:103B6000092800F0EB800A2800F0EA800B2814BF37
:103B700001224FF48072B3FBF2F21FE0FDF79CFFCD
:103B8000696A09B3012921D0022921D0032921D052
:103B9000042921D0052921D0062921D0072921D0A7
:103BA000082921D0092921D00A2921D00B2914BFA5
:103BB00001224FF480726968B0FBF2F24B0803EB0C
:103BC0004203B3FBF1F33AE00122F4E70222F2E709
:103BD0000422F0E70622EEE70822ECE70A22EAE7F1
:103BE0000C22E8E71022E6E72022E4E74022E2E7A1
:103BF0008022E0E7FDF772FF6A6AC2B1012A2FD086
:103C0000022A2FD0032A2FD0042A2FD0052A2FD002
:103C1000062A2FD0072A2FD0082A2FD0092A2FD0E2
:103C20000A2A2FD00B2A14BF01244FF480746A682B
:103C3000B0FBF4F4530803EB4403B3FBF2F39BB281
:103C40000022A3F110004FF6EF7188423FF6CAAB95
:103C500023F00F01C3F3420328680B43C3609AE4C7
:103C60000224E4E70424E2E70624E0E70824DEE790
:103C70000A24DCE70C24DAE71024D8E72024D6E76E
:103C80004024D4E78024D2E76846FEF7EDFD6A6A57
:103C9000019B6AB3012A2DD0022A16D0032A2DD007
:103CA000042A11D0052A2BD0062A2BD0072A2BD084
:103CB000082A2BD0092A2BD00A2A2BD00B2A14BF72
:103CC00001244FF4807400E008246A68B3FBF4F424
:103CD000B0E703A8FEF772FE6A6A049B42B1012AAC
:103CE00008D0022A08D0032A08D0042ADAD1ECE747
:103CF0000124EAE70224E8E70424E6E70624E4E7EF
:103D00000A24E2E70C24E0E71024DEE72024DCE7C5
:103D10004024DAE78024D8E701222CE702222AE7B0
:103D2000042228E7062226E7082224E70A2222E7BF
:103D30000C2220E710221EE720221CE740221AE76F
:103D4000802218E7F0B101281ED002281ED00328D7
:103D50001ED004282CD005282CD006282CD00728CB
:103D60002CD008282CD009282CD00A282CD00C4B79
:103D70000C4A0B2814BF1046184600EB5100B0FB4C
:103D8000F1F35CE70748F8E70448F6E70648F4E78C
:103D90000648F2E700AA0A00004402580090D00347
:103DA00020A107000020A1070048E8015485450133
:103DB000A148E2E7A148E0E7A148DEE7A148DCE747
:103DC000A148DAE7A148D8E7A148D6E700B301281F
:103DD00020D0022820D0032820D0042820D0052875
:103DE00020D0062820D0072820D0082820D0092855
:103DF00020D00A2820D047F61222924B0B2814BF5D
:103E0000184610466B6800EB5300B0FBF3F316E75F
:103E10008C48F7E78C48F5E78C48F3E78D48F1E7E5
:103E20008B48EFE78C48EDE78C48EBE78C48E9E7F7
:103E30008C48E7E78C48E5E74FF22440E2E7E8B139
:103E4000012817D002281CD003281DD004281ED01A
:103E500005281FD0062820D0072821D0082822D0E6
:103E6000092823D00A2824D00B2814BF4FF480320D
:103E70004FF48072696802EB5103A2E64FF480327E
:103E8000F8E74FF48042F5E742F6AA22F2E74FF452
:103E90000052EFE741F69812ECE741F25452E9E79D
:103EA0004FF48052E6E74FF40062E3E74FF480629C
:103EB000E0E74FF40072DDE7FDF7FEFD6B6A63B3E8
:103EC000012B2CD0022B2CD0032B2CD0042B2CD04C
:103ED000052B2CD0062B2CD0072B2CD0082B2CD02C
:103EE000092B2CD00A2B2CD00B2B14BF01234FF401
:103EF00080736A68B0FBF3F303EB5203B3FBF2F396
:103F00009BB20022A3F110004FF6EF7188423FF6FA
:103F100069AA2968CB60FFF73EBB0123E9E70223CA
:103F2000E7E70423E5E70623E3E70823E1E70A23BD
:103F3000DFE70C23DDE71023DBE72023D9E740236D
:103F4000D7E78023D5E7FDF7C9FD6B6AC3B1012B25
:103F50001AD0022B1AD0032B1AD0042B1AD0052BFF
:103F60001AD0062B1AD0072B1AD0082B1AD0092BDF
:103F70001AD00A2B1AD00B2B14BF01244FF48074D3
:103F80006A68B0FBF4F3B7E70224F9E70424F7E723
:103F90000624F5E70824F3E70A24F1E70C24EFE709
:103FA0001024EDE72024EBE74024E9E78024E7E74D
:103FB00008246868B3FBF4F303EB5003B3FBF0F39E
:103FC0009EE703A8FEF7FAFC6A6A049B4AB1012A3D
:103FD00009D0022A09D0032A09D0042A40F01D8101
:103FE000E7E70124E5E70224E3E70424E1E7062408
:103FF000DFE70A24DDE70C24DBE71024D9E72024DF
:10400000D7E74024D5E78024D3E7012258E10222F4
:1040100056E1042254E1062252E1082250E10A222C
:104020004EE10C224CE110224AE1202248E14022DC
:1040300046E1802244E100BF0024F4000050C300A8
:10404000AAC2A20000127A0000093D0080841E006E
:1040500040420F005458140000350C002A2C0A006E
:1040600020A1070090D0030048E80100F0B101282A
:104070001ED002281ED003281ED004281ED00528DA
:104080001ED006281ED007281ED008281ED00928BA
:104090001ED00A281ED08E4B8E4A0B2814BF104605
:1040A000184600EB5100B0FBF1F329E78948F8E727
:1040B0008948F6E78948F4E78948F2E78948F0E754
:1040C0008948EEE78948ECE78948EAE78948E8E764
:1040D0008948E6E78948E4E700B3012820D00228B0
:1040E00020D0032820D0042820D0052820D006285E
:1040F00020D0072820D0082820D0092820D00A283E
:1041000021D043F609527A4B0B2814BF18461046AB
:104110006B6800EB5300B0FBF3F3F1E67448F7E78C
:104120007448F5E77448F3E77548F1E77348EFE73B
:104130007448EDE77448EBE76548E9E77348E7E75B
:104140004FF22440E4E747F61220E1E7D0B101281E
:104150001BD002281CD003281DD004281ED00528FF
:104160001FD0062820D0072821D0082822D00928CF
:1041700023D00A2824D00B2814BF4FF400438023F7
:10418000686819E74FF40043FAE74FF48043F7E714
:104190004FF40053F4E741F25553F1E74FF48053E5
:1041A000EEE740F6CC43EBE740F6AA23E8E74FF40E
:1041B0000063E5E74FF48063E2E74FF40073DFE765
:1041C0004FF48073DCE78024FFF789B8B2F5004F25
:1041D0003FF496A80122002394E6082C3FF4F1AEA8
:1041E00033D8012C3FF4AFAEFFF466AE042C7FF45D
:1041F000F9A86846FEF738FB6A6A019B002A3FF47B
:10420000F0AE012A3FF4EFAE022A3FF4D2AE032A09
:104210003FF4EDAE042A3FF4CBAE052A3FF4E9AEFD
:10422000062A3FF4E8AE072A3FF4E7AE082A3FF437
:10423000E6AE092A3FF4E5AE0A2A3FF4E4AE0B2AC3
:1042400014BF01244FF48074B3E6202C3FF444AF34
:10425000402C3FF47BAF102C7FF4C4A82C4B696832
:104260001A6812F0200F3FF401AF1A68194BC2F31D
:10427000C102D34000283FF4C8AE01283FF4C7AEC6
:1042800002283FF4C6AE03283FF4C5AE04283FF42D
:10429000C4AE05283FF4C3AE06283FF4C2AE0728DB
:1042A0003FF4C1AE08283FF4C0AE09283FF4BFAECA
:1042B0000A283FF4BEAE0B2814BF01224FF48072CF
:1042C000B3FBF2F303EB5103B3FBF1F318E600BFCA
:1042D00090D003000090D0030048E8010024F400CF
:1042E000AAC2A20000127A0000A861005561510024
:1042F00000093D0080841E0040420F0020A10700FD
:104300002A2C0A00801A06001516050048E801004C
:1043100000440258836AFF2B10B5044604D940F6C6
:1043200049416A4802F0D4FAA36AD8070FD5E36A74
:1043300033F4003304D040F64E41644802F0C8FA2A
:104340002268E16A536823F400330B435360A36A85
:1043500099070FD5236B33F4803304D040F65541D1
:104360005A4802F0B5FA2268216B536823F480336F
:104370000B435360A36A5A070FD5636B33F4802352
:1043800004D040F65C41514802F0A2FA2268616B09
:10439000536823F480230B435360A36A1B070FD594
:1043A000A36B33F4004304D040F66341474802F066
:1043B0008FFA2268A16B536823F400430B435360C8
:1043C000A36AD8060FD5E36B33F4805304D040F6CC
:1043D0006A413E4802F07CFA2268E16B936823F45C
:1043E00080530B439360A36A99060FD5236C33F473
:1043F000005304D040F67141344802F069FA226853
:10440000216C936823F400530B439360A36A5A060C
:1044100048D523682E4A934220D0A2F54C429342BD
:104420001CD002F58062934218D002F5806293425C
:1044300014D002F58062934210D002F544429342B8
:104440000CD0A2F51C42934208D002F58062934240
:1044500004D040F678411D4802F03AFA636C33F418
:10446000801304D040F67941184802F031FA2168EF
:10447000626C4B68B2F5801F23F4801343EA020399
:104480004B600FD1A36C33F4C00304D040F67E41DF
:104490000E4802F01DFA2268A16C536823F4C00391
:1044A0000B435360A36A1B060FD5E36C33F4002360
:1044B00004D040F68641054802F00AFA2268E16C11
:1044C000536823F400230B43536010BD2F8300086F
:1044D000001001402DE9F041069D04460F461646A6
:1044E00098462168CA6937EA02030CBF01220022FC
:1044F000B24202D00020BDE8F081681CF2D0FCF787
:104500002FF9A0EB080085422068036800D38DB91D
:1045100023F4D0730360836823F0010383602023B6
:10452000C4F88030C4F884300023032084F87C3041
:10453000BDE8F0815A07D4D5C3691B05D1D54FF426
:1045400000630362036823F4D0730360836823F07D
:10455000010383602023C4F88030C4F88430C4F899
:104560008830E1E72DE9F7439846D0F880300446DB
:104570000E46202B91464ED100294AD0002A48D021
:1045800090F87C30012B46D00123002580F87C3048
:104590002123C0F88850C0F88030FCF7E1F8A36808
:1045A0000746A4F85490B3F5805FA4F8569003D161
:1045B00023690BB935461E46B4F856203B46CDF864
:1045C000008092B252B940212046FFF783FF58B9CC
:1045D000202384F87C00C4F8803006E0002280218B
:1045E0002046FFF777FF18B1032003B0BDE8F08342
:1045F00022685EB935F8023BC3F308039362B4F84E
:104600005630013B9BB2A4F85630D5E716F8013B73
:10461000F4E70120E9E70220E7E773B50026044646
:10462000C0F88860FCF79CF8236805461B681A07E9
:1046300017D423681B685B070AD56FF07E430022FE
:104640004FF48001204600932B46FFF743FFA0B9AB
:1046500020230020C4F8803084F87C00C4F8843023
:104660000CE06FF07E4332464FF400110093034696
:104670002046FFF72FFF0028DBD0032002B070BDDB
:1046800010B50446002879D0816903683C4A0029A6
:1046900051D0934223D0A2F54C4293421FD002F551
:1046A000806293421BD002F58062934217D002F5DC
:1046B0008062934213D002F5444293420FD0A2F598
:1046C0001C4293420BD002F58062934207D02D4AE0
:1046D000934204D04FF499712B4802F0F9F8D4F8C2
:1046E000803023B984F87C30204602F05DF92268DE
:1046F00024232046C4F88030136823F0010313609C
:10470000FEF762FD012839D0A36A13B12046FFF7F6
:1047100001FE236820465A6822F490425A609A6843
:1047200022F02A029A601A6842F00102BDE81040A5
:104730001A60FFF772BF9342D1D0144A9342CED091
:1047400002F580629342CAD002F580629342C6D0DD
:1047500002F580629342C2D002F544429342BED039
:10476000A2F51C429342BAD002F580629342B6D0C1
:10477000044A9342B3D040F23711ADE7012010BD97
:1047800000100140000C00582F8300080044004036
:104790001FB503220123042102248DF803200722E0
:1047A0008DF800308DF8042000228DF801308DF84E
:1047B00006208DF8072008228DF802308DF8082099
:1047C0008DF80C20426E8DF805308DF809108DF8AB
:1047D0000A408DF80B108DF80D308DF80E308DF8E5
:1047E0000F302AB9A0F86A30A0F8683004B010BDC4
:1047F00002689368916804AAC3F3426302EB5171A3
:1048000011F8102C11F8081CD20092FBF1F2A0F85C
:104810006A2004AA134413F8102C13F8083CD200A1
:1048200092FBF3F3E0E700000368204A934210B5DF
:10483000044620D0A2F54C4293421CD002F580627F
:10484000934218D002F58062934214D002F5806240
:10485000934210D002F5444293420CD0A2F51C4280
:10486000934208D002F58062934204D040F21121B5
:104870000F4802F02DF894F87C30012B13D024233C
:104880000020C4F8803023681A68196822F00052AA
:1048900021F00101196060661A60202384F87C0011
:1048A000C4F8803010BD022010BD00BF00100140D0
:1048B0006883000803682B4A934270B504460D468E
:1048C00020D0A2F54C4293421CD002F58062934264
:1048D00018D002F58062934214D002F580629342B0
:1048E00010D002F5444293420CD0A2F51C429342F0
:1048F00008D002F58062934204D040F23F211A486A
:1049000001F0E6FF35F0C04225F0005307D0B3F1C7
:10491000004F04D04FF41071134801F0D9FF94F800
:104920007C30012B1CD00123204684F87C302423CA
:10493000C4F8803023681E681A6822F001021A60E9
:10494000996821F0604129439960FFF721FF2368AE
:1049500000201E60202384F87C00C4F8803070BDE5
:10496000022070BD001001406883000803682B4AD4
:10497000934270B504460D4620D0A2F54C429342B6
:104980001CD002F58062934218D002F580629342F7
:1049900014D002F58062934210D002F54442934253
:1049A0000CD0A2F51C42934208D002F580629342DB
:1049B00004D04FF41C711A4801F08AFF35F0C06230
:1049C00025F0007307D0B3F1006F04D040F27121DD
:1049D000134801F07DFF94F87C30012B1CD001239B
:1049E000204684F87C302423C4F8803023681E6875
:1049F0001A6822F001021A60996821F06061294367
:104A00009960FFF7C5FE236800201E60202384F80C
:104A10007C00C4F8803070BD022070BD00100140E1
:104A2000688300080A4B013B01D1032070470269EB
:104A3000002AF8DA0369064A43F001030361013AE8
:104A4000F3D0036913F00103F9D11846704700BF92
:104A5000410D030084B038B505AD044685E80E006D
:104A60000A9B012B26D1836B23F480338363C368B5
:104A700023F4840323F04003C360C36823F440138A
:104A8000C360119B012B03D1C36843F48013C3603F
:104A90002046FFF7C7FF089B012B07D1A36843F00F
:104AA0000803A360A36843F02003A360BDE8384077
:104AB00004B07047C36843F04003C360FFF7B2FF20
:104AC0000E9B23B9A36B43F48033A363E3E7A36B8B
:104AD00023F48033F9E7836823F001038360002027
:104AE000704708B5C368012923F0C043C36008D1EB
:104AF000C36843F00053C3603220FBF737FE002049
:104B000008BD19B9C36843F08043F4E7012008BD2C
:104B10008901074A41F020010161013A05D003698A
:104B200013F02003F9D1184670470320704700BFE7
:104B3000410D03001023064A0361013A05D00369C1
:104B400013F01003F9D1184670470320704700BFD7
:104B5000410D0300D0F800381943C0F800180020B8
:104B60007047000084B02DE9F047044609A8884644
:104B700080E80E0000230C9F139E194603F14002AB
:104B8000013304EB82020F2B5160F7D1A36B002E8F
:104B900072D123F40013A363236843F0400323601E
:104BA000236843F080032360002304F50065C4F804
:104BB000003ED4F80038C4F800380E9B012B61D1B8
:104BC0000B9900295CD12046FFF7C4FF1021204635
:104BD000FFF79EFF01462046FFF7ACFF002853D1A8
:104BE000081C18BF0120002304F510624FF0904EFE
:104BF0004FF0006C19464FF67F392B616B61EB610A
:104C0000434543D1002104F530624FF0904C4FF002
:104C100000688E464FF67F398B424AD12B69012FAF
:104C200023F480732B6107D12C4B2B632B6B43F444
:104C3000803343F003032B630023A3616FF08043B1
:104C400063611FB9A36943F01003A361A269244BF8
:104C50001343A3610F9B1BB1A36943F00803A36136
:104C6000012E05D1A36943F0804343F00403A361FF
:104C7000BDE8F04704B0704743F40013A36393E723
:104C80001946A0E703219EE70120ACE7D2F800A077
:104C9000BAF1000F0BDA3BB9C2F800C01161013361
:104CA000C2F808902032ABE7C2F800E0F6E71160E6
:104CB000F4E7D2F800A0BAF1000F0CDA41B9C2F85B
:104CC0000080C2F810E00131C2F808902032A3E75A
:104CD000C2F800C0F5E7C2F800E0F2E7000180008A
:104CE00000383C8008B5D0F8043843F00203C0F81F
:104CF00004380320FBF73AFD002008BD10B5016819
:104D00000446002002F04EF9012803D00820314B60
:104D1000187010BD236893F8FE21552A3BD193F8F3
:104D2000FF21AA2A37D193F83620462A18D193F8C2
:104D30003720412A14D193F83820542A10D193F8FF
:104D40003920312A0CD193F82620292A08D10020B5
:104D5000022320716071A071E07184F8243010BDCD
:104D600093F85220462A18D193F85320412A14D19F
:104D700093F85420542A10D193F85520332A0CD19B
:104D800093F84220292A08D1002020716071A07177
:104D9000E0710323E1E70420B9E7D3F8C62162609C
:104DA00093F8C2310E2B13D8012244F2500002FABC
:104DB00003F3184008D113F4C051EAD19B0707D57B
:104DC00084F82420002010BD022384F82430F9E761
:104DD00005209CE7EA0700204B1E01383B3113F801
:104DE000012F8B4200F8012FF9D170474318405C26
:104DF0005A7840EA0220704770B50646FFF7F6FF82
:104E000002310546304689B2FFF7F0FF45EA00401F
:104E100070BD00002DE9F74F01680446406802F0BC
:104E2000C1F8012805D00820424B187003B0BDE836
:104E3000F08F256895F8FE31552B03D195F8FF3199
:104E4000AA2B01D00320EFE70E212846FFF7CEFF63
:104E5000676895F80DB082460744162184F823B0A0
:104E60002846A76095F8109084F82290FFF7BEFFBF
:104E7000C4F81E0028B924212846FFF7BDFFC4F856
:104E80001E00D4F81E601121284609FB06F94F4484
:104E9000E760FFF7ABFF1321A08280462846FFF7AB
:104EA000A5FF064620B920212846FFF7A5FF0646A4
:104EB0000B212846FFF79AFF024608B1C30701D528
:104EC0002120B1E7431ED14440F6F47103EB4813AF
:104ED000A6EB090693FBF0F3F61AB6FBFBFB8B453A
:104EE000C4F816B017D8012184F8241094F82410BF
:104EF000114E032916D12C2128468DE80C00FFF70E
:104F00007BFF019B009A1F4430602761B2F5007F50
:104F1000D6D800208AE74FF6F4718B4594BF022162
:104F20000321E1E7C8F30F180023474433602761EA
:104F3000ECE700BFEA07002070070020002310B54F
:104F400080F825300446104B036001F027FF0378FA
:104F50001BB106200D4B187010BD4378DB0707D539
:104F60004388B3F5007FC4F81A3001D92120F1E756
:104F70002046FFF7C3FE30B92046FFF74BFF10B9BC
:104F8000012384F8253010BD30020020EA070020FC
:104F900038B501221A4B00241A4D1A705A7028464F
:104FA0009A70194B194A1C70194B1C704FF0FF3343
:104FB0001360184A1360FFF7C1FFF0B9164B5C226B
:104FC0001B68988103F12B01D8811861586120205A
:104FD00083F8202003F121021D6002F8010B8A42B0
:104FE000FBD110210022012019860C499A850968FD
:104FF000596399630A4B1A7038BD204638BD00BF0B
:1050000030040020740700200C0200201000002053
:105010000E0200200C000020080000207007002075
:10502000EA07002090F82430032B06D190F82330B3
:105030000239006903FB010070470129F6D8C068F6
:105040000844704738B505680C88D5F81A30826B6B
:105050005B09B4FBF3F495F82430E4B27BB1022B86
:1050600009D9032B0BD195F82310B4FBF1F301FB05
:105070001344E4B203E0084B1B689A42F3D1114693
:105080002846FFF7CFFF00222968204401F0F6FFF1
:10509000003018BF012038BD700700200A4B1A6885
:1050A00010B5146891682046FFF7BCFF938921680A
:1050B0000022184401F0E2FF18B10020034B1870E1
:1050C00010BD092010BD00BF080200200D02002005
:1050D000F8B50546FFF7A6FF154B06461B78BBB98A
:1050E000144C0022144B21781A6031B94FF400722D
:1050F000286802F07FF80123237030460024831BC8
:1051000095F82320DBB29A4200D93CB12046F8BD85
:10511000FFF7C4FF0028E3D00924F7E722462968F7
:10512000471C01F0ABFF0128384618BF0924E6E709
:105130000D0200200C02002008020020F8B50646EF
:105140000F460025FBF7CCF834461B49A31B9842B9
:1051500001DC0120F8BD14F8012B202A03D8052A10
:1051600016D00020F8BDA2F12203DBB21C2B05D81B
:1051700021FA03F3DB4313F00103F2D0A2F15B0346
:10518000022BEED97C2AECD02E2A11D1012DE8D0A9
:105190001FB92A2AE5D03F2AE3D02E2A08BF0125CD
:1051A000A2F16103192B9CBF203A04F8012CCDE732
:1051B000002FEED0F4E700BF0126001FF0B54B1E14
:1051C0000D46164685B001F10A020446202103F877
:1051D000011F9A42FBD120782E280FD068B32046B9
:1051E000FBF77EF880B20C2808D82146684602F00A
:1051F00093F831466846FFF7A1FF08B900201CE08C
:105200002E21684602F07AF8044638B1002304F8EB
:10521000013B2046FBF764F80328EFD86846FBF70C
:105220005FF80828EAD80027FEB26846FBF758F86E
:105230000137B04203D844B9012005B0F0BD04AB3A
:10524000334413F8103CAB55EEE72378002BF3D032
:105250000027FEB22046FBF743F80137B042EBD9F6
:10526000AB19A25D1A72F4E72DE9F04F144690F8DD
:1052700024209A4685B0531E0646022B00F2C580B4
:10528000032A4FF0000362484FF6FF77DFF88C9156
:1052900008BF6FF070470370BAF1000F1CD0D9F847
:1052A00000501C46DFF8708196F82220E3B29A4243
:1052B00006D80027574B1F70384605B0BDE8F08F61
:1052C000002241462846013401F0D8FE0028F3D0E0
:1052D000D6F81E301D44E7E7012A25D0032A29D13C
:1052E0008D00D6F81A30D9F800B00193D6F80880AE
:1052F000B5FBF3F39844D8452ED0464B1A78029369
:1053000042B1002396F82210DAB2914214D8002359
:10531000029A13704049404601F044FED0B94FF65E
:10532000FF73C9F80030C7E701EB410505F0010A3A
:105330006D08D6E74D00D4E700223749584603935D
:1053400001F09CFE039B01330028B5D0D6F81E2047
:105350009344D7E7C9F80080019B591E96F8243082
:10536000032B05EA010510D12B4B210A5A1CEC54E2
:10537000A9549A1C210C0333C4F30364A954EC54BC
:105380000122244B00271A7096E7022B04D1224BEE
:10539000EC540133240AF2E7012BF1D11E4AAB5C35
:1053A0009346BAF1000F28D003F00F0343EA041329
:1053B000DBB2AB540135D6F81A30013B1D4012D197
:1053C00001232A4629463046FFF74EFF00287FF486
:1053D00073AF08F101061049304601F0E3FD0028E3
:1053E0009DD0C9F800601BF80530BAF1000F06D057
:1053F000C4F307140BF80540C2E7E3B2D9E703F0A2
:10540000F003C4F303241C43F4E76FF0704753E741
:105410000C0200200E020020BC040020100000201E
:105420002DE9F74F90F8242000264D4B8046012AA5
:105430001E701ED0032A26D18900DFF834B16FF028
:10544000704AD8F81A40D8F80870B1FBF4F31F443A
:10545000631E01EA030443490868894687424BD129
:10546000032A14D1404BE5585D4528BF5D46AA4646
:1054700016E001EB410140F6F87B01F00106490816
:105480004FF6FF7ADDE749004FF6F87BF8E7022A8E
:1054900002D1354BE55AE7E7012A05D04FF0000A63
:1054A000504603B0BDE8F08F2F4AA55C019206B1CB
:1054B0002D0901341C4018D12C4B1B7853B90137EE
:1054C0002949384601F06EFD68B94FF6FF73C9F8F7
:1054D0000030E5E70123224621464046FFF7C4FE9F
:1054E0000028ECD0DCE7C9F80070019B13F804A099
:1054F0007EB305EB0A15B7E71C4B1B787BB91A4D39
:105500003846294601F04EFD2A460028DDD098F89D
:105510002430C9F80070032B0AD16559A4E7002292
:10552000012340461146FFF79FFE0028E7D0B7E76A
:10553000022B01D1655B97E7012BAFD1655D06B109
:105540002D09D8F81A300134013B1C4012F804A090
:10555000CEE74FEA0A2A0AF4706A554484E700BF8E
:105560000C02002010000020BC0400200E020020CD
:10557000F8FFFF0F2DE9F04106680746884696F8C8
:105580002430012B21D0032B4FF6F873124D4FF628
:10559000FF7414BF1D466FF07044B9683046FFF7C2
:1055A0003FFF844216D0D6F8163098422CBF0A230B
:1055B0000023854298BF3C23B8F10108B86001D0B0
:1055C000002BEAD01846BDE8F08140F6F8754FF69A
:1055D000FF74E2E70823EFE7F8FFFF0F2DE9F0473C
:1055E0000668884681461746D6F81A40B8F8003053
:1055F0006409426B816B96F82400B3FBF4F4032832
:10560000E4B211D196F82350DFF80CA1B4FBF5F009
:1056100005FB1044E4B297B913F00F055ED0306873
:1056200000EB4510BDE8F08732B196F82350B4FB8B
:10563000F5F005FB1044E4B24FF6F87AEBE7002CE6
:1056400051D02AB155E00125C5B98A4542D90A464B
:10565000C9F8382011463046FFF7E4FC284B814654
:105660001B68934212D12318326993420ED396F8E5
:105670002430032B0AD00020BDE8F0873046FFF726
:10568000CFFE8245014625D9013D37E01D4B1B78F1
:10569000CBB900251C4B04EB09001D601B4B1D7092
:1056A000316801F07FFC012812D130682FB1B8F8C1
:1056B000003003F00F0300EB43104FF0FF32144BA8
:1056C0001A60BDE8F087FFF7E9FC0028E1D0D2E7D7
:1056D0002846F2E701220F4B1A70CCE7002CB4D118
:1056E0000F2BB2D901E00F2BABD9002AB0D0002F7D
:1056F000A9D096F823502D01B3FBF5F5EDB2A3E741
:10570000700700200D020020080200200C0200207B
:105710000C0000200F020020F8FFFF0F2DE9F041E0
:1057200016461F46436B8846012231468363054671
:10573000FFF754FF044600B30B22414601F0F4FD8D
:10574000122F314628460CBF10232023E37200237A
:105750002373A3826383E3616B61E389AB83238A51
:10576000EB83E37A2B863388AB85FFF76BFC01284C
:105770000CBF00200920BDE8F0811B20BDE8F081AE
:105780000B882DE9F0471C0705460F4654D1002B26
:1057900052D0436B01228363FFF720FF04460028A9
:1057A00051D00378E52B4BD0002B4CD000F1FF38C3
:1057B00005F1200900F1070A18F8016F01F0FAFC61
:1057C0003044437803F00303022B08BF203ED0454A
:1057D00009F8016BF0D104F1080805F1280904F17A
:1057E0000B0A18F8016B01F0E5FC3044437803F034
:1057F0000303022B08BF203ED04509F8016BF0D10E
:105800003B88A28AAB852078A0F1E5035842584135
:10581000E3696B61638B43EA02436B60E37ADA0608
:105820002B864BBFE389E38AAB83AB834CBF238AD0
:10583000238BEB83BDE8F087002239462846ABE78F
:105840000120BDE8F0870220BDE8F0872DE9F04F88
:105850000F8E87B09946838D0192FF43426B0DF105
:10586000180804460E468263BAB228F8023D009238
:1058700043BB012241462046FFF7B0FE002800F05E
:10588000B18004F12B030B25029341462046FFF71C
:1058900077FF022812D0002840F09F80238E03F06B
:1058A0003F03B9F1000F10D0B9F1010F35D0BDF8A9
:1058B00016300133ADF81630002DE6D1284607B07A
:1058C000BDE8F08F1B07DCD0D3E7082BEFD004F145
:1058D000200A06F120051AF801BB15F8017B01F03A
:1058E00069FC5844407800F00300012808BF0BF120
:1058F000200B01F05FFC3844407800F003000128E1
:105900000CBF07F120033B469B4501D00B25CEE79A
:10591000029B5345DFD10025C9E7009A1A42C6D140
:105920000F2BC4D096F820302A2B14D1002596F8DE
:1059300028302A2BBBD0002DB9D14FF0280A16F8F9
:105940000A502A2DE7D03F2D2CD10AF1010ABAF1D5
:105950002B0FF4D1DFE74FF0200B16F80B502A2D58
:10596000E4D03F2D05D10BF1010BBBF1280FF4D191
:10597000DCE714F80BA001F01DFC5044417801F065
:105980000301012908BF0AF1200A01F013FC284491
:10599000417801F00301012908BF2035AA45E2D072
:1059A0000B25C4E714F80A30039301F003FC039BB2
:1059B0001844417801F00301012908BF2033039303
:1059C00001F0F8FB2844039B417801F00301012911
:1059D00008BF2035AB42B8D098E7019B002B7FF47D
:1059E00066AF98E71B2569E72DE9F8430768044689
:1059F0000E46904697F82530002B55D0436B8363B5
:105A00000B88002B33D1012231462046FFF7E6FDFB
:105A100080B3002531462046FFF7B2FE002845D16D
:105A200061682061A081E0813846A160FFF7FAFA41
:105A30001F4B06461B78FBB91E4BDFF880901C609D
:105A4000D9F800309E421DD1237EB8F1770F6FF355
:105A500082032376DBB202D0B8F1610F1FD143F08D
:105A600001036FF3410323762846BDE8F8831B0743
:105A7000CFD0C8E71B25CDE7FFF710FB0028DBD010
:105A80000925F1E700220C4B30461A70396801F005
:105A900089FA0028C9F8006008BF0825D4E703F098
:105AA000FE0343F00203DEE70725DDE70B25DBE716
:105AB0000D020020080200200C0200200C00002033
:105AC00038B5436B012204460D468363FFF786FD1C
:105AD00008B9002038BD0378002BFAD0E52B0AD195
